:020000040800F2
:1000000000800120616900087565000877650008B7
:10001000796500087B6500087D6500080000000028
:100020000000000000000000000000007F650008E4
:1000300081650008000000008365000885650008F0
:10004000B1690008B16900089D650008B169000840
:10005000AD650008B1690008B1690008B169000820
:10006000B1690008B1690008B1690008B169000808
:10007000B1690008B1690008B1690008B1690008F8
:10008000B1690008B1690008B1690008B1690008E8
:10009000B1690008B1690008B1690008B1690008D8
:1000A000B1690008B1690008B1690008B1690008C8
:1000B000B5650008B1690008B1690008B1690008B8
:1000C000B1690008B1690008B1690008B1690008A8
:1000D000B1690008CD650008B1690008B169000880
:1000E000B1690008B1690008B1690008B169000888
:1000F000B1690008B1690008B1690008B169000878
:10010000B1690008B1690008B1690008B169000867
:10011000B1690008B1690008B1690008B169000857
:10012000B1690008B1690008DD650008B16900081F
:10013000B1690008B1690008B1690008B169000837
:10014000B1690008B1690008B1690008B169000827
:10015000B1690008B1690008B1690008B169000817
:10016000B1690008B1690008B1690008B169000807
:10017000B1690008B1690008B1690008B1690008F7
:08018000B1690008B169000833
:1001900010B5054C237833B9044B13B10448AFF3C1
:1001A00000800123237010BD6800002000000000C3
:1001B0005C72000808B5034B1BB103490348AFF359
:1001C000008008BD000000006C0000205C72000888
:1001D00053B94AB9002908BF00281CBF4FF0FF31AE
:1001E0004FF0FF3000F072B9ADF1080C6DE904CEAC
:1001F00000F006F8DDF804E0DDE9022304B0704702
:100200002DE9F047089E04468846002B4BD18A42D0
:10021000154667D9B2FA82F24AB1C2F1200701FA53
:1002200002F320FA07F7954047EA030894404FEAA3
:10023000154E230CB8FBFEF71FFA85FC0EFB178842
:1002400043EA084307FB0CF1994209D9EB1807F17F
:10025000FF3080F01B81994240F21881023F2B440D
:100260005B1AA4B2B3FBFEF00EFB103344EA034466
:1002700000FB0CFCA44509D92C1900F1FF3380F0D8
:100280000781A44540F2048102382C4440EA07402B
:10029000A4EB0C0400271EB1D4400023C6E90043A0
:1002A0003946BDE8F0878B4209D9002E00F0EB807B
:1002B0000027C6E9000138463946BDE8F087B3FAA1
:1002C00083F7002F47D18B4202D3824200F2FA809B
:1002D000841A61EB030301209846002EE0D0C6E9A2
:1002E0000048DDE702B9FFDEB2FA82F2002A40F0F0
:1002F0008F80491B4FEA154E1FFA85F80127B1FB85
:10030000FEFC230C0EFB1C1143EA014308FB0CF11D
:10031000994207D9EB180CF1FF3002D2994200F252
:10032000CD808446591AA3B2B1FBFEF00EFB101427
:1003300043EA044408FB00F8A04507D92C1900F152
:10034000FF3302D2A04500F2B6801846A4EB0804A1
:1003500040EA0C409FE7C7F1200CBB4022FA0CFE9C
:100360004EEA030E01FA07F420FA0CF521FA0CF319
:100370004FEA1E482543B3FBF8F92C0C08FB193350
:100380001FFA8EFA44EA034309FB0AF49C4202FA7C
:1003900007F200FA07F10BD91EEB030309F1FF3056
:1003A00080F087809C4240F28480A9F10209734466
:1003B0001B1BADB2B3FBF8F008FB103345EA034456
:1003C00000FB0AFAA24508D91EEB040400F1FF3332
:1003D0006BD2A24569D90238744440EA0940A0FBB7
:1003E0000289A4EB0A044C45C2464B4654D351D073
:1003F000002E69D0B1EB0A0564EB030404FA0CFC8F
:10040000FD40FC404CEA0505C6E90054002747E7DB
:10041000C2F1200320FA03F7954001FA02F021FA15
:1004200003F34FEA154E3843010CB3FBFEF71FFAF6
:1004300085F80EFB173341EA034107FB08F38B42B3
:1004400004FA02F407D9691807F1FF3C2FD28B4256
:100450002DD9023F2944CB1A81B2B3FBFEF00EFB2B
:10046000103341EA034100FB08F38B4207D96918B6
:1004700000F1FF3C17D28B4215D902382944C91A22
:1004800040EA07473BE73746304609E70746E7E6D5
:100490001846FBE64145ABD2B8EB020A69EB0E0207
:1004A00001381346A4E76046E9E7184695E7674632
:1004B000D1E781467CE702382C4447E7ACF1020CD7
:1004C0002B442FE7384608E73746E9E6704700BF78
:1004D00001F0FF01102A2BDB10F0070F08D010F8F5
:1004E000013B013A8B422DD010F0070F42B3F6D1F9
:1004F000F0B441EA012141EA014122F007047FF012
:1005000000070023F0E80256083C85EA010586EA68
:10051000010685FA47F5A3FA87F586FA47F6A5FAA4
:1005200087F68EB9EED1F0BC01F0FF0102F00702B0
:1005300032B110F8013B013A83EA010313B1F8D15B
:100540000020704701387047002D06BF354603383C
:10055000073815F0010F07D1013015F4807F02BF75
:10056000013015F4C03F0130F0BC0138704700BFC6
:1005700070B50646056800240AE06B68F17D51FA03
:1005800084F10022C9B228469847034680B9013455
:10059000B369A3420ED92B68002BEED0F17D51FA3E
:1005A00084F10122C9B22846984703460028E4D0C6
:1005B000184670BD73684CF2503098476B68002243
:1005C00011462846984703460028F1D16B6800225F
:1005D00001212846984703460028E9D1327B12F0D2
:1005E000010FE5D06B680022022128469847034698
:1005F000DEE770B504684668636800220121204682
:100600009847054698B90120B04763680122114612
:1006100020469847054650B90120B047636800223C
:10062000012120469847054608B96420B04728466E
:1006300070BD2DE9F0410746884606680024BB6975
:10064000A34217D93368F97DE5B229440122C9B222
:1006500030469847034688B97368F97D294448FABB
:1006600004F202F00102C9B230469847034628B9A5
:100670000134E4E73846FFF7BCFF03461846BDE8FF
:10068000F08170B505460E46046863680021204677
:100690009847034698B92B7B13F0010F06D0636887
:1006A0000022022120469847034640B92B7C13F0D4
:1006B000100F06D031462846FFF7BBFF0346184609
:1006C00070BD31092846FFF7B4FF03460028F6D174
:1006D00031462846FFF7ADFF0346F0E708B5002294
:1006E000FFF7CFFF08BD38B505460121FFF7F6FF3C
:1006F000044618B96B6840F6B8309847204638BDB4
:1007000008B5437D934201D2013BDAB2054B53F861
:100710002230194449B261F07F01C9B2FFF7DEFF10
:1007200008BD00BF7872000808B5417C41F00401A3
:10073000417441F00801FFF7D1FF08BD08B501225F
:10074000FFF79FFF08BD08B5FFF7F8FF08BD38B5F4
:1007500005460C46217839B101342846FFF7F3FFEE
:1007600003460028F6D000E00023184638BD2DE9E6
:10077000F8430446894698469DF820600FCA84E8ED
:100780000F0005460F4603684BB30122002198472E
:100790000346002840F0BF802B68012211462846FE
:1007A00098470346002840F0B680237B13F0010FE2
:1007B00008D02B68012202212846984703460028CA
:1007C00040F0A980237B13F0020F08D02B68012290
:1007D0000321284698470346002840F09C80237B4D
:1007E00013F0020F08D06B680022032128469847B7
:1007F0000346002840F08F80B9F1000F5AD1002342
:1008000023740823E3750423A3619DF82430012B8E
:1008100057D0012E03D9237C43F00803237484F8B6
:10082000148066750023A3752046FFF7A1FE0028FB
:1008300070D1217C11F0100F4AD041F020012046E8
:10084000FFF74CFF0346002865D141F29410B847EA
:10085000217C41F020012046FFF740FF034600289D
:1008600059D19620B847217C41F020012046FFF75E
:1008700035FF034600284ED1217C41F0200120465F
:10088000FFF72CFF0346002845D10423637420465C
:10089000FFF74AFF034600283DD12046FFF723FF1C
:1008A0000346C0BB0223A37406212046FFF716FFB0
:1008B000034630E0102323740423E3750823A36167
:1008C000A3E7012EA5D1237C43F004032374A0E702
:1008D00003212046FFF7ADFE0346E0B941F2941034
:1008E000B84703212046FFF7A4FE034698B941F21A
:1008F0009410B84703212046FFF79BFE034650B9EA
:100900009620B84702212046FFF793FE03460028B1
:10091000B2D000E001231846BDE8F88310B51446B4
:10092000013100EBC1000189406801F09DFA0030FF
:1009300018BF01202070002010BD08B5013100EB68
:10094000C100003218BF01220189406801F093FA0A
:10095000002008BD00B587B082B1012A00D1029203
:10096000013100EBC10003890193406810B101A976
:1009700001F090F9002007B05DF804FB002302931A
:10098000EEE7000010B5074C4FF42072FF2120461F
:1009900006F03FF8044B23600123A3801423E38077
:1009A00010BD00BFA8000020AA0000AA20B10328A3
:1009B00000D1024A10467047014AFBE72801002097
:1009C000A800002010B50446074B1868074BA3FB8E
:1009D0000030800900F02CFD002221464FF0FF304E
:1009E00000F0E6FC002010BD00000020D34D621096
:1009F00008B5032000F0CAFC0020FFF7E3FF05F074
:100A000069FD002008BD0000024A1368013313602D
:100A1000704700BF28030020014B1868704700BFD3
:100A20002803002038B50446FFF7F6FF0546B4F169
:100A3000FF3F00D00134FFF7EFFF401BA042FAD385
:100A400038BD000030B583B000230193002800F0CA
:100A50003B810446836D13B323689A6812F0005FEC
:100A600005D09A6822F0204222F03F029A60226864
:100A7000936813F0805F1FD1936823F0104323F035
:100A80003F0343F080539360904B1B68904AA2FB56
:100A90000323DB0C03EB83035A00019209E005F00A
:100AA00075F90023E36584F85430D5E7019B013BD9
:100AB0000193019B002BF9D123689A6812F0805FA3
:100AC00034D1A26D42F01002A265E26D42F0010243
:100AD000E2650120A26D12F0100F40F0EE809A68DE
:100AE00012F0040F40F0E980A26D22F4817242F00E
:100AF0000202A2659A6802F00302012A18D0754A20
:100B000093421AD0744A934237D0724B9B6803F0D9
:100B10000303012B52D00023002B5FD16E4B9B6847
:100B200003F00303012B52D0002358E00020D1E74B
:100B30001A6812F0010F5CD1E1E7674B9B6803F084
:100B40000303012B09D0654B9B6803F00303012BC2
:100B50000AD0002383F0010343E05F4B1B6813F0CE
:100B6000010FF0D00123F5E75C4B1B6813F0010F78
:100B700001D10023EEE70123ECE7564B9B6803F01D
:100B80000303012B0AD0554B9B6803F00303012B91
:100B90000BD00023002BC1D0012320E04D4B1B685C
:100BA00013F0010FEFD00123F4E74C4B1B6813F057
:100BB000010F01D10023EDE70123EBE7454B1B6853
:100BC00013F0010F01D10023A6E70123A4E7424B54
:100BD0001B6813F0010F4ED1002300E0012383F0C6
:100BE000010333B163683E498A6822F47C121343DF
:100BF0008B60E269A36B43EA4233E2681343A26865
:100C00001343626A43EA0243012A36D0E26A22B100
:100C100002F47072216B0A4313432168CD68314A94
:100C20002A401343CB602268936813F00C0F13D152
:100C3000A169636B5B0043EA8131D36823F480438D
:100C400023F002030B43D360E36B012B1AD022681D
:100C5000136923F0010313612369012B24D0226857
:100C6000136B23F00F031363A36D23F0030343F00F
:100C70000103A36526E00123B1E7A26A013A43EA32
:100C80004243C3E721680B6923F4FF6323F00403A5
:100C9000226C656C2A43A56C2A43E56C2A431343F6
:100CA00043F001030B61D7E721680B6B23F00F03BF
:100CB000226A013A13430B63D6E7A36D43F0100396
:100CC000A365012003B030BD0120FBE70000002038
:100CD00083DE1B4300000450000104500002045056
:100CE0000003045007C0F0FFF0B583B0002201926A
:100CF00090F85420012A00F0A6820346012280F8D1
:100D000054200268926812F0040F40F092824A6800
:100D1000052A08D8023A032A5CD8DFE802F002511B
:100D200054570C224A601D684C680868303504F43A
:100D300040764FF4407292FAA2F2B2FA82F2D640B2
:100D400055F8262004F01F041F27A74022EA0702B7
:100D5000C0F38460A040024345F826201A689068DA
:100D600010F00C0F39D01C68A26802F00302012AAF
:100D700000F0C9800A68CD68D4F8B000C2F312064A
:100D800020EA060005F02006B34DB5402A40C2F324
:100D900012020243C4F8B020C868B04A904200F082
:100DA000B9800A68AE498A4200F06281AD498A4240
:100DB00000F08B81AC498A4200F08D8100203DE239
:100DC00012224A60AFE718224A60ACE74FF4807203
:100DD0004A60A8E706224A60A5E708688C681432D2
:100DE00000F000774FF0007595FAA5F5B5FA85F596
:100DF000EF4052F8275000F0F87C4FF0F87090FA6E
:100E0000A0F6B6FA86F62CFA06F64FF0070E0EFAA2
:100E100006F625EA060590FAA0F0B0FA80F02CFA62
:100E200000F084402C4342F8274048691C68E2687F
:100E3000C2F3C102520000FA02F20D69042D0ED075
:100E40000E68603454F825708848384006F0F8463B
:100E50003243104340F0004044F8250083E7206E01
:100E6000C0F384650A68C2F3120666BBC2F38462EB
:100E700095422DD01C68606EC0F384650A68C2F389
:100E800012064EBBC2F3846295422AD01C68A06E43
:100E9000C0F384650A68C2F3120636BBC2F38462EB
:100EA000954227D01C68E06EC0F384650A68C2F3DF
:100EB00012061EBBC2F3846295427FF454AF20F049
:100EC0000040E0664FE792FAA2F2B2FA82F2CFE770
:100ED00020F000402066CDE792FAA2F2B2FA82F248
:100EE000D2E720F000406066D0E792FAA2F2B2FAB0
:100EF00082F2D5E720F00040A066D3E792FAA2F292
:100F0000B2FA82F2D8E7226812F0010F3FF432AF52
:100F1000002093E11C680A68C2F31205002D48D135
:100F2000C2F38460013009288CBF00200120002812
:100F300061D0002D47D1C2F3846001308006002DBE
:100F400048D1C2F38466771C0126BE403043002D91
:100F500048D1C2F38462013202EB4202120502431D
:100F60008D68143402F0007C4FF0007090FAA0F00D
:100F7000B0FA80F02CFA00FC54F82C6002F0F87201
:100F80004FF0F87090FAA0F7B7FA87F722FA07F750
:100F90004FF0070E0EFA07F726EA070690FAA0F0C0
:100FA000B0FA80F022FA00F08540354344F82C5026
:100FB000F7E692FAA2F0B0FA80F0013009288CBF6F
:100FC00000200120B3E792FAA2F0B0FA80F00130DD
:100FD0008006B4E792FAA2F6B6FA86F6771C0126E6
:100FE000BE40B3E792FAA2F2B2FA82F2013202EB09
:100FF00042021205B3E7ADB9C2F384600130800646
:10100000BDB9C2F38466771C0126BE403043C5B922
:10101000C2F3846202EB42021B3A120542F00072F4
:1010200002439DE792FAA2F0B0FA80F00130800608
:10103000E6E792FAA2F6B6FA86F6771C0126BE40DB
:10104000E4E792FAA2F2B2FA82F202EB42021B3A0F
:10105000120542F00072E3E7FFFF070000007F4047
:10106000000052C7000084CB0100008000F0FF03A5
:101070007649896811F4000F7FF498AE1968886882
:1010800000F0030001282DD07148814234D071480E
:1010900081424AD06E48806800F00300012865D084
:1010A000002018BB6B48806800F00300012866D060
:1010B0006948824269D06948824200F0928068485B
:1010C000824200F0A4800020B8E06049896811F0F5
:1010D000807FD3D06EE65D49896811F4800FCDD052
:1010E0000020ABE0086810F0010FCDD09A6D42F0FF
:1010F00020029A650120A1E000F58070806800F070
:10110000030001280BD05748806800F00300012835
:10111000CED15448006810F0010FE7D1C8E74D4820
:10112000006810F0010FE1D1EDE7A0F58070806854
:1011300000F00300012809D04A48806800F003004D
:1011400001280AD000200028D0D1ABE74048006831
:1011500010F0010FF0D00120F5E74248006810F0D0
:10116000010F01D10020EEE70120ECE738480068CC
:1011700010F0010F01D1002093E7012091E73548DD
:10118000006810F0010FB1D192E7314A914205D0C9
:1011900002F50072914201D000204FE02B498A688D
:1011A00002F0E07242F40002886820F0E07002432E
:1011B0008A602D4A1268A1F14E61A1F50221A1F2C7
:1011C0007D41A1FB0212D20CC2EB0212D1000191AF
:1011D00002E0019A013A0192019A002AF9D1002015
:1011E0002CE01B4A914205D002F50072914201D0D9
:1011F000002023E015498A6802F0E07242F0807214
:10120000886820F0E07002438A60002016E0104AEF
:10121000914201D0002011E00C498A6802F0E0728E
:1012200042F48002886820F0E07002438A60002067
:1012300004E0826D42F0200282650120002283F8E2
:10124000542003B0F0BD0220FBE700BF00030450B0
:101250000000045000010450000052C7000084CB7D
:1012600001000080000204500000002090F854208B
:10127000012A00F0858070B49BB00346012280F8FB
:10128000542002683F48824231D0002000900098EC
:10129000002830D0926812F0040F66D1826812F0F4
:1012A000040F62D10A68002A3AD0374DAA6822F4A6
:1012B00060424C685E6B44EA46342243AA601C6874
:1012C000A26802F00302012A1ED0826802F0030223
:1012D000012A1FD02C4CA26822F4716222F00F0266
:1012E0000868896801430A43A260002042E000F5D3
:1012F00080700090CBE79A6D42F020029A65002240
:1013000083F85420012038E0226812F0010FDCD06D
:1013100000202FE0026812F0010FDBD0002029E04E
:1013200019498A6822F460428A6019688A6802F062
:101330000302012A0DD0826802F00302012A0ED0B6
:1013400011498A6822F4716222F00F028A6000203B
:1013500010E00A6812F0010FEDD000200AE00268E8
:1013600012F0010FECD0002004E09A6D42F0200250
:101370009A650120002283F854201BB070BC70478E
:10138000022070470000045000030450074AD3684D
:1013900023F4E0631B041B0C000200F4E06018431C
:1013A00040F0BF6040F40030D060704700ED00E0D6
:1013B00030B4174BDB68C3F30223C3F10704042CDA
:1013C00028BF04241D1D062D18D9033B4FF0FF35FF
:1013D00005FA04F421EA0401994005FA03F322EA2C
:1013E0000303194300280BDB0901C9B200F1604077
:1013F00000F5614080F8001330BC70470023E5E73A
:1014000000F00F000901C9B2024B1954F4E700BF04
:1014100000ED00E014ED00E000F01F0240090123A0
:101420009340024A42F82030704700BF00E100E0DC
:101430000138B0F1807F0AD2064B5860064AF0218D
:1014400082F823100020986007221A60704701205C
:10145000704700BF10E000E000ED00E0042805D078
:10146000054A136823F0040313607047024A1368A7
:1014700043F004031360704710E000E0704708B5C4
:10148000FFF7FCFF08BD0000002838D010B5044667
:10149000437F1BB30223637723791BBB2368194A5D
:1014A0005A612268936823F018039360637913BB31
:1014B00023684FF0FF321A612268936823F06003BB
:1014C00061690B4393602268936823F08003A169EC
:1014D0000B43936001236377002010BD037704F072
:1014E000EBFCD7E7E268A168204600F00DF8002881
:1014F000DCD00120F1E7236822691A61DCE70120D2
:10150000704700BFB71DC10410B41F2400E01C4683
:101510000123A3400B4203D1631E002CF7D11C46CC
:10152000182A24D8DFE802F00F23232323232323C0
:101530001F232323232323231B2323232323232387
:101540000D00062C15D80368596101688B6823F0DB
:1015500018031A438A6000205DF8044B7047072C7B
:10156000F1D90120F8E70F2CEDD90120F4E7012093
:10157000F2E70120F0E7036A002B29D01A46C16880
:10158000B1F5802F11D0136801681BBACB61536885
:1015900001681BBA8B61936801681BBA4B61D36801
:1015A00002681BBA1361002070471A68016812BAFA
:1015B000CA635A68016812BA8A639A68016812BAE3
:1015C0004A63DA68016812BA0A6303F11002DAE7C3
:1015D000012070474369B3F5803F13D0436AE3B1FC
:1015E0001A68016812BACA625A68016812BA8A6235
:1015F0009A68016812BA4A62DB6802681BBA136211
:101600000020704702680023D36202689362026878
:101610005362026813621846704701207047002821
:1016200000F08F8038B504460369182B4DD0082B85
:1016300055D094F85530002B57D0022384F85530FC
:101640002268136823F0010313602268136823F4EF
:101650008023E1680B4313600A2384F84830236930
:10166000082B48D06169602953D02068026822F4B1
:10167000803222F07E02A5682B430B431A4302609E
:101680006369602B02D0B3F5803F09D122681368EB
:1016900023F4C043E1690B431360032384F848300B
:1016A000A369002B3FD06369002B43D10020206445
:1016B0006064A06584F85C00012384F855302268DA
:1016C000136843F00103136038BD4269402A3AD0E1
:1016D000602A3AD0B2F5803FA9D10120F4E76369CE
:1016E000B3F5803FA5D10120EEE784F854302046C1
:1016F00004F0B0FBA1E72268136823F0180343F05D
:10170000080313602046FFF736FF0028CED00120E3
:10171000DAE72068026822F4803222F07E020B436E
:1017200013430360ACE72046FFF725FF0028BAD03B
:101730000120C9E72046FFF74DFF0028B6D0012061
:10174000C2E7012070470120BEE70120BCE700008E
:10175000002865D010B403460168324A914245D84A
:10176000314A0A443149A1FB021212099200426433
:101770002F4A0264022283F825201868016821F4A8
:10178000FF4121F070019A68DC6822431C69224302
:101790005C6922439C692243DC6922431C6A224320
:1017A0000A4302609A68B2F5804F11D0196C204A42
:1017B000914226D01F4A11685C6C0F20A04021EA9C
:1017C00000011160116858685C6CA0400143116011
:1017D0000020D862186358639863D863012283F8A5
:1017E000252083F824005DF8044B7047124A0A4410
:1017F0000E49A1FB02121209920042640F4A0264D0
:10180000B8E7A83211685C6C0F20A04021EA000103
:101810001160116858685C6CA04001431160D7E703
:101820000120704707040240F8FFFDBFCDCCCCCCAF
:1018300000000240A8040240F8FBFDBF0004024083
:1018400008B590F82530DBB2022B03D00423C36324
:10185000012008BD0268136823F00E0313600268BC
:10186000136823F001031360436C016C012202FA38
:1018700003F34B6080F82520002380F82430836B2D
:1018800013B198470020E4E70020E2E738B5036C85
:101890001A6804682568416C04238B40134213D0F6
:1018A00015F0040F10D0236813F0200F03D1236824
:1018B00023F004032360416C026C04238B405360CB
:1018C000036B03B1984738BD02238B4013421AD0F3
:1018D00015F0020F17D0236813F0200F06D12368EC
:1018E00023F00A032360012380F82530416C026C49
:1018F00002238B405360002380F82430C36A002BFE
:10190000E1D09847DFE7082303FA01F11142DAD06A
:1019100015F0080FD7D0236823F00E032360426C24
:10192000016C012303FA02F24A60C36380F8253098
:10193000002380F82430436B002BC4D09847C2E7C3
:101940003B4B1B6913F0020F04D03A4A536843F033
:1019500001035360364B1B6913F0080F04D0354A5E
:10196000536843F002035360314B1B6913F0100FAF
:1019700004D0304A536843F0040353602C4B1B6976
:1019800013F0200F04D02B4A536843F00803536030
:10199000274B1B6913F0400F04D0264A536843F0CD
:1019A00010035360224B1B6913F0800F04D0214AAF
:1019B000536843F0200353601D4B1B6913F4807F71
:1019C00004D01C4A536843F040035360184B1B6912
:1019D00013F4007F04D0174A536843F08003536028
:1019E000134B1B6913F4804F04D0124A536843F41D
:1019F000807353600E4B1B6913F4004F04D00D4AE3
:101A0000536843F400735360094B9B69002B08DB58
:101A1000074B9A6942F000429A614CF2FA321A611D
:101A20007047044A536843F480635360F0E700BF93
:101A3000002002402C0300207047704710B5654A13
:101A4000536923F4FF6323F007035361536923F4BD
:101A500000435361604B1B7ADBB2042B6FD05D4BAC
:101A60001B6913F0020F30D15A4B1B6913F0080F9A
:101A70002BD1584B1B6913F0100F26D1554B1B6906
:101A800013F0200F21D1534B1B6913F0400F1CD1D1
:101A9000504B1B6913F0800F17D14E4B1B6913F489
:101AA000807F12D14B4B1B6913F4007F0DD1494B42
:101AB0001B6913F4804F08D1464B1B6913F4004F88
:101AC00003D1444B9B69002B1ADAFFF739FF00F072
:101AD000ABF8414B1B7ADBB2012B35D03E4B1B7A66
:101AE000DBB2022B35D03C4B1B7ADBB2032B35D05B
:101AF000394B1B7ADBB2042B30D0374B00221A72E1
:101B0000344B1B6913F0010F4DD0324B01221A6187
:101B1000314B1B7ADBB2934231D12F4B9A69013A98
:101B20009A619B69FBB12C4C6069FFF785FF636983
:101B3000013363616069216900F050F833E0536953
:101B400023F4802353618AE7234B5869FFF775FF1D
:101B5000D3E7214B1869FFF770FFCEE71E4BD8681B
:101B6000FFF76BFFC9E71C4C4FF0FF3363610023A5
:101B7000237200F059F86069FFF75EFF13E000F090
:101B800053F8154B1B7ADBB2022B18D0124B1B7A81
:101B9000DBB2032B18D0104B1B7ADBB2042B13D013
:101BA0000D4B00221A720C4B1B7A3BB9094A536940
:101BB00023F040735361084B00221A7010BD064B8E
:101BC0001869FFF739FFEBE7034BD868FFF734FFDD
:101BD000E6E700BF002002402C03002011F0010FB7
:101BE0001AD1104A536943F4006353610D4B5A698B
:101BF00022F4FF624FF4FF6191FAA1F1B1FA81F191
:101C00008840104358615A6942F002025A615A6989
:101C100042F480325A617047024A536923F40063E8
:101C20005361E3E700200240184B1B7FDBB2012B1E
:101C300004D0164B1B7FDBB2032B0CD1144B1A685C
:101C400042F400621A601A6822F400621A601A688C
:101C500042F400721A600D4B1B7FDBB2022B04D0E2
:101C60000A4B1B7FDBB2032B0CD1094B1A6842F4E1
:101C700080521A601A6822F480521A601A6842F47C
:101C800080621A60014B00221A7770472C030020F3
:101C900000200240F0B482B0002341E0D0F82CC014
:101CA0002CEA040CC6F3C0049C4044EA0C04C46251
:101CB00086E0062400E00024B4403C430235664E32
:101CC00046F82540654C2568D44304EA05064F686C
:101CD00017F4803F01D042EA0506604D2E606D6822
:101CE00004EA05064F6817F4003F01D042EA0506F2
:101CF0005A4D6E60AD6804EA05064F6817F4801F00
:101D000001D042EA0506554DAE60ED682C404E68A4
:101D100016F4001F01D042EA0504504AD460013392
:101D20000A6832FA03F400F0938001249C402240B8
:101D3000F5D04D68022D01D0122D10D1DE080836E5
:101D400050F826C003F00705AF000F25BD402CEA70
:101D5000050C0D69BD4045EA0C0540F826500668A3
:101D60005F000325BD40ED4305EA060C4E6806F012
:101D70000306BE4046EA0C0606604E6806F1FF3CCC
:101D8000BCF1010F03D9112E01D0122E11D186689A
:101D900005EA060CCE68BE4046EA0C068660466838
:101DA00026EA040C4E68C6F300169E4046EA0C066E
:101DB00046604E6806F0030CBCF1030F3FF46EAFB3
:101DC000C46825408C68BC402C43C4604C6814F047
:101DD000805FA4D0224C256E45F001052566246E57
:101DE00004F001040194019C9D08AE1C1A4C54F8A7
:101DF000267003F00304A6000F24B44027EA04076A
:101E0000B0F1904F3FF457AF164CA04216D004F5F6
:101E10008064A04214D004F58064A04212D004F57E
:101E20008064A04210D004F58064A0420ED004F576
:101E30008064A0423FF43DAF07243DE701243BE727
:101E4000022439E7032437E7042435E7052433E780
:101E500002B0F0BC704700BF000001400004014028
:101E600000100240000400480369194201D100201B
:101E70007047012070470AB98162704781617047DD
:101E8000024A136843F48073136070470070004087
:101E9000024B186800F4C060704700BF007000403B
:101EA000B0F5007F0FD0204B1B6803F4C063B3F57F
:101EB000806F37D01C4A136823F4C06343F48063F7
:101EC000136000207047184B1B6803F4C063B3F520
:101ED000007F25D0144A136823F4C06343F40073D1
:101EE0001360124B1B6802F1467202F55B3202F27C
:101EF0008322A2FB03239A0C322303FB02F300E0AC
:101F0000013B23B1084A526912F4806FF8D1064BA5
:101F10005B6913F4806F01D1002070470320704784
:101F20000020704700207047007000400000002033
:101F300030B583B00546204B9B6D13F0805F0BD00E
:101F4000FFF7A6FFB0F5007F17D0802D1FD82DD04A
:101F5000702D2DD000211BE0174CA36D43F0805352
:101F6000A365A36D03F080530193019BFFF790FFDE
:101F7000A36D23F08053A365E4E7802D03D9A02D42
:101F800003D9022104E0002102E0012100E0032145
:101F90000A4A136823F007030B431360136803F026
:101FA00007038B4206D0012003B030BD0221EFE7CA
:101FB0000121EDE70020F7E7001002400020024079
:101FC0003B4B9B6813F00C0F1AD0394B9B6803F006
:101FD0000C030C2B0ED0364B9B6803F00C03042B28
:101FE0002FD0334B9B6803F00C03082B2CD0002020
:101FF000014618E02E4BDB6803F00303012BEAD106
:102000002B4B1B6813F0080F14D1294BD3F89430D5
:10201000C3F30323274A52F82310254B9B6813F080
:102020000C0F0CD00020224A936803F00C030C2BF9
:102030000DD070471E4B1B68C3F30313EAE7084635
:10204000F1E71D480021EEE71C480021EBE71346AD
:10205000D26802F00302DB68C3F302130133022AE1
:102060000AD0032A1AD0B1FBF3F3114AD068C0F3A7
:10207000062000FB03F008E00F48B0FBF3F30C4A26
:10208000D068C0F3062000FB03F0094BDB68C3F304
:10209000416301335B00B0FBF3F0CAE70748B0FBD4
:1020A000F3F3034AD068C0F3062000FB03F0ECE72B
:1020B00000100240147500080024F40000127A0099
:1020C00070B582B00446036813F0100F3FD0974BF1
:1020D0009B6813F00C0F40F09280944B1B6813F038
:1020E000020F03D08369002B00F09182206A8F4B8E
:1020F0001B6813F0080F62D08C4B1B6803F0F003D1
:10210000984263D9FFF714FF002840F08782874B7D
:102110001A6842F008021A601A6822F0F002216A76
:102120000A431A605A6822F47F42E16942EA0122B6
:102130005A60FFF745FF7D4B9B68C3F303137C4A4E
:10214000D35CD8407B4B18600020FEF73BFC236833
:1021500013F0010F00F0A180744B9B6803F00C0397
:10216000082B00F09180714B9B6803F00C030C2B43
:1021700000F083806368B3F5803F00F0B580B3F56D
:10218000A02F00F0B780694B1A6822F480321A60E1
:102190001A6822F480221A606368002B00F0B7806E
:1021A000FEF73AFC0546614B1B6813F4003F74D1FF
:1021B000FEF732FC401B6428F5D9032035E25B4B67
:1021C000D3F894301B0903F0F00399E7574B1A68D2
:1021D00042F008021A601A6822F0F002216A0A43EB
:1021E0001A605A6822F47F42E16942EA01225A6089
:1021F000206AFFF79DFE00289BD0012015E283692D
:1022000033B34A4A136843F001031360FEF704FC3A
:102210000546464B1B6813F0020F06D1FEF7FCFB88
:10222000401B0228F5D90320FFE1404B1A6842F019
:1022300008021A601A6822F0F002216A0A431A6042
:102240005A6822F47F42E16942EA01225A607EE73D
:10225000364A136823F001031360FEF7DDFB0546E1
:10226000324B1B6813F0020F3FF471AFFEF7D4FB43
:10227000401B0228F4D90320D7E12C4BDB6803F084
:102280000303032B7FF476AF284B1B6813F4003F46
:1022900003D06368002B00F0C381236813F0020FA2
:1022A00061D0224B9B6803F00C03042B4AD01F4BD8
:1022B0009B6803F00C030C2B3ED0E368002B78D016
:1022C0001A4A136843F480731360FEF7A5FB0546B2
:1022D000164B1B6813F4806F62D1FEF79DFB401B09
:1022E0000228F5D90320A0E1104A136843F4803393
:1022F000136051E703F18043A3F53C331A6842F4BD
:1023000080221A601A6842F480321A6044E7FEF7AD
:1023100083FB0546054B1B6813F4003FBDD0FEF759
:102320007BFB401B6428F5D903207EE100100240AE
:102330004475000800000020B64BDB6803F003037F
:10234000022BBAD1B34B1B6813F4806F03D0E36840
:10235000002B00F06781AF4A536823F0F8532169DE
:1023600043EA01635360236813F0080F4CD063699C
:102370009BB3A84AD2F8943043F00103C2F89430DA
:10238000FEF74AFB0546A34BD3F8943013F0020F37
:102390003AD1FEF741FB401B0228F4D9032044E167
:1023A0009C4A536823F0F853216943EA0163536060
:1023B000D9E7984A136823F480731360FEF72CFB67
:1023C0000546944B1B6813F4806FCCD0FEF724FBBA
:1023D000401B0228F5D9032027E18E4AD2F8943019
:1023E00023F00103C2F89430FEF716FB0546894B33
:1023F000D3F8943013F0020F06D0FEF70DFB401B0C
:102400000228F4D9032010E1236813F0040F7BD0D5
:10241000804B9B6D13F0805F36D17E4B9A6D42F0FE
:1024200080529A659B6D03F080530193019B0125B7
:10243000794B1B6813F4807F28D0A368012B39D017
:10244000052B3FD0734BD3F8902022F00102C3F844
:102450009020D3F8902022F00402C3F89020A368C3
:10246000002B3DD0FEF7D8FA06466A4BD3F89030E1
:1024700013F0020F46D1FEF7CFFA801B41F28833EA
:102480009842F2D90320D0E00025D1E7624A1368D0
:1024900043F480731360FEF7BFFA06465E4B1B6879
:1024A00013F4807FC9D1FEF7B7FA801B0228F5D953
:1024B0000320BAE0574AD2F8903043F00103C2F843
:1024C0009030CCE7534BD3F8902042F00402C3F88D
:1024D0009020D3F8902042F00102C3F89020BEE78C
:1024E000FEF79AFA06464B4BD3F8903013F0020FE2
:1024F00008D0FEF791FA801B41F288339842F2D956
:10250000032092E0002D35D1A36A002B00F08C80CF
:10251000404A926802F00C020C2A00F08880022BDC
:102520002ED03C4B1A6822F080721A601B6813F0A0
:10253000006F09D1374B1B6813F0005F04D1354A97
:10254000D36823F00303D360324AD36823F088733F
:1025500023F48033D360FEF75FFA04462D4B1B68EB
:1025600013F0007F51D0FEF757FA001B0228F5D96F
:1025700003205AE0274A936D23F080539365C3E705
:10258000244A136823F080731360FEF745FA05466A
:10259000204B1B6813F0007F06D0FEF73DFA401B6E
:1025A0000228F5D9032040E0236B5A1E636B1B02FF
:1025B00043EA0213A26B120943EA4243E26A13435D
:1025C000E26B5208013A43EA4253226C5208013A44
:1025D00043EA42630F4AD360136843F08073136089
:1025E000D36843F08073D360FEF716FA0446094BB4
:1025F0001B6813F0007F06D1FEF70EFA001B0228BD
:10260000F5D9032011E000200FE000200DE00120AB
:102610000BE000BF0010024000700040012004E009
:10262000012002E0012000E0002002B070BD012086
:10263000FBE700BF664B1B6803F007038B420CD21D
:10264000634A136823F007030B431360136803F016
:1026500007038B4201D00120704770B50D46044638
:10266000036813F0010F6CD04368032B0AD0022BD0
:102670002DD0002B32D1574A126812F0020F07D129
:102680000120A2E0534A126812F0007F00F09E8001
:1026900050498A6822F0030213438B60FEF7BCF9AD
:1026A00006466368032B20D0022B2DD0002B3AD096
:1026B000484B9B6803F00C03042B42D0FEF7ACF9A7
:1026C000801B41F288339842F2D903207DE0414AD1
:1026D000126812F4003FDBD1012076E03D4A126817
:1026E00012F4806FD4D101206FE03A4B9B6803F065
:1026F0000C030C2B25D0FEF78FF9801B41F2883399
:102700009842F2D9032060E0324B9B6803F00C033F
:10271000082B16D0FEF780F9801B41F288339842CF
:10272000F2D9032051E02B4B9B6813F00C0F08D01B
:10273000FEF772F9801B41F288339842F3D90320E7
:1027400043E0236813F0020F06D0224A936823F077
:10275000F003A1680B4393601D4B1B6803F0070354
:10276000AB420CD91A4A136823F007032B431360BA
:10277000136803F00703AB4201D0012025E0236872
:1027800013F0040F06D0134A936823F4E063E16862
:102790000B439360236813F0080F07D00D4A93682A
:1027A00023F46053216943EAC1039360FFF708FCF7
:1027B000084B9B68C3F30313074AD35CD840074B0D
:1027C00018600020FEF7FEF8002070BD0120FCE735
:1027D0000020024000100240447500080000002064
:1027E000014B1868704700BF0000002008B5FFF7D4
:1027F000F7FF044B9B68C3F30223034AD35CD84022
:1028000008BD00BF001002405475000808B5FFF76E
:10281000E7FF044B9B68C3F3C223034AD35CD84051
:1028200008BD00BF0010024054750008F8B55A4BAF
:10283000DB6813F0030F18D0574BDB6803F003037A
:102840000268934202D001252846F8BD002A00F014
:10285000A080514BDB68C3F30213013342689342FB
:1028600001D00125F0E700251AE00368022B59D0BA
:10287000032B5ED0012B01D001250FE0464A1268E0
:1028800012F0020F61D0444DEA6822F073024468EE
:10289000013C43EA04131343EB600025002DD3D120
:1028A0000F4604463C4A136823F080631360FEF72A
:1028B000B3F80646384B1B6813F0006F05D0FEF7DF
:1028C000ABF8801B0228F5D90325002DBCD1002FC1
:1028D0003DD131490B6923F41F3323F44073A068C1
:1028E000E2681209520442EA002213430B612A4AA9
:1028F000136843F080631360FEF78EF80646264B9C
:102900001B6813F0006F05D1FEF786F8801B0228C4
:10291000F5D90325002D97D11F4A1369A1690B43EF
:10292000136191E71C4A126812F4806FABD1012544
:10293000B4E7194A126812F4003FA4D1164A12688B
:1029400012F4802F9FD10125A8E70125A6E7012FCA
:102950000FD01148026922F0C06222F4FE42A16841
:1029600063695B08013B5B0643EA01231343036190
:10297000BDE70948026922F4C00222F4FE42A168C0
:1029800023695B08013B5B0543EA012313430361B1
:10299000ADE7012558E700BF00100240F8B5514BE4
:1029A000DB6813F0030F18D04E4BDB6803F0030312
:1029B0000268934202D001252846F8BD002A00F0A3
:1029C0008E80484BDB68C3F30213013342689342A5
:1029D00001D00125F0E700251AE00368022B59D049
:1029E000032B5ED0012B01D001250FE03D4A126878
:1029F00012F0020F61D03B4DEA6822F07302446886
:102A0000013C43EA04131343EB600025002DD3D1AE
:102A10000F460446334A136823F080531360FDF7D2
:102A2000FBFF06462F4B1B6813F0005F05D0FDF738
:102A3000F3FF801B0228F5D90325002DBCD1002F00
:102A40003DD128494B6923F41F3323F44073A06818
:102A5000E2681209520442EA002213434B61214A00
:102A6000136843F080531360FDF7D6FF06461D4BF5
:102A70001B6813F0005F05D1FDF7CEFF801B022815
:102A8000F5D90325002D97D1164A536961690B4387
:102A9000536191E7134A126812F4806FABD101259C
:102AA000B4E7104A126812F4003FA4D10D4A12682C
:102AB00012F4802F9FD10125A8E70125A6E7094838
:102AC000426922F0C06222F4FE42A16823695B08D9
:102AD000013B5B0643EA012313434361BFE7012542
:102AE0006AE700BF001002402DE9F04182B00446C1
:102AF000036813F4006F2FD0436EB3F5800F25D019
:102B000008D9B3F5000F10D0B3F5400F40F099800D
:102B1000002610E0002B40F0948000210430FFF7E5
:102B200085FE06463EB1374618E05E4AD36843F458
:102B30008033D36000265B4AD2F8883023F4400308
:102B4000616E0B43C2F88830002707E00021203077
:102B5000FFF724FF0646E5E700273E46236813F407
:102B6000805F15D0A36EB3F1807F7AD06CD9B3F1BA
:102B7000007F70D0B3F1407F7AD1002E7BD1494ADB
:102B8000D2F8883023F04073A16E0B43C2F888302E
:102B9000236813F4003F00F08E80424B9B6D13F0CE
:102BA000805F6AD13F4B9A6D42F080529A659B6D6F
:102BB00003F080530193019B4FF001083A4A1368D8
:102BC00043F480731360FDF727FF0546364B1B68FF
:102BD00013F4807F05D1FDF71FFF401B0228F5D9B4
:102BE0000326002E62D12F4BD3F8903013F440739C
:102BF00016D0D4F884209A4212D02A4AD2F89030C3
:102C000023F44073D2F8901041F48031C2F8901050
:102C1000D2F8901021F48031C2F89010C2F89030B0
:102C200013F0010F2CD1002E40F043811D4AD2F841
:102C3000903023F44073D4F884100B43C2F89030E2
:102C400035E001273E4689E793B90021201DFFF7B3
:102C5000EDFD064691E7134AD36843F48033D36011
:102C60008BE7002104F12000FFF798FE064684E779
:102C700001273E468CE737468AE74FF000089DE77C
:102C8000FDF7CAFE0546074BD3F8903013F0020F4C
:102C9000C9D1FDF7C1FE401B41F288339842F2D9F9
:102CA0000326C0E700100240007000403746B8F12C
:102CB000000F40F00081236813F0010F08D09D4AF7
:102CC000D2F8883023F00303A16B0B43C2F888309D
:102CD000236813F0020F08D0964AD2F8883023F008
:102CE0000C03E16B0B43C2F88830236813F0040F28
:102CF00008D0904AD2F8883023F03003216C0B437F
:102D0000C2F88830236813F0080F08D0894AD2F837
:102D1000883023F0C003616C0B43C2F8883023680D
:102D200013F0100F08D0834AD2F8883023F4407390
:102D3000A16C0B43C2F88830236813F0200F08D031
:102D40007C4AD2F8883023F44063E16C0B43C2F82C
:102D50008830236813F4007F08D0764AD2F8883090
:102D600023F44023E16D0B43C2F88830236813F449
:102D7000806F08D06F4AD2F8883023F44013216E58
:102D80000B43C2F88830236813F0400F08D0694A1B
:102D9000D2F8883023F44053216D0B43C2F88830B9
:102DA000236813F0800F08D0624AD2F8883023F4E9
:102DB0004043616D0B43C2F88830236813F4807F71
:102DC00008D05C4AD2F8883023F44033A16D0B431D
:102DD000C2F88830236813F4005F0FD0554AD2F848
:102DE000883023F04063E16E0B43C2F88830E36E15
:102DF000B3F1006F65D0B3F1806F67D0236813F42F
:102E0000002F0FD04B4AD2F8883023F04063216F57
:102E10000B43C2F88830236FB3F1006F5ED0B3F17B
:102E2000806F60D0236813F4802F0FD0414AD2F80E
:102E3000883023F04063616F0B43C2F88830636FC2
:102E4000B3F1006F57D0B3F1806F59D0236813F4FA
:102E5000804F0FD0374AD2F8883023F04053A16F0B
:102E60000B43C2F88830A36FB3F1805F50D0B3F149
:102E7000005F55D0236813F4004F08D02D4AD2F8D4
:102E8000883023F08043E16F0B43C2F88830236819
:102E900013F4803F09D0274AD2F8883023F000434A
:102EA000D4F880100B43C2F88830384602B0BDE831
:102EB000F0813746FBE61F4A936D23F080539365FC
:102EC000F9E6D36843F48013D36097E70121201D0E
:102ED000FFF7ACFC002891D007468FE7D36843F496
:102EE0008013D3609EE70121201DFFF79FFC00287F
:102EF00098D0074696E7D36843F48013D360A5E7DC
:102F00000121201DFFF792FC00289FD007469DE776
:102F10000221201DFFF78AFC0028ABD00746A9E755
:102F2000022104F12000FFF739FD0028A2D0074656
:102F3000A0E700BF00100240C0B110B504460379FD
:102F4000012B15D00123037143795BB10223637117
:102F50002268136843F004031360012363710020A7
:102F6000207110BD037103F017FAEFE701207047DD
:102F70000220F6E738B504460268D36823F0A003C0
:102F8000D360FDF749FD05462368DB6813F0200F89
:102F900007D1FDF741FD401BB0F57A7FF4D903203E
:102FA00000E0002038BD38B50368DA6812F0400F41
:102FB00001D0002038BD04464FF0FF32DA60FDF743
:102FC0002BFD05462368DB6813F0400F07D1FDF7A2
:102FD00023FD401BB0F57A7FF4D90320EAE70020F7
:102FE000E8E738B5002864D0044690F82130002B7B
:102FF00044D0022384F821302368CA225A6223680D
:1030000053225A622046FFF7CEFF054600283AD1E8
:103010002268936823F4E00323F04003936021685F
:103020008A68636820690343A069034313438B6084
:103030002368E2681A6122681369A16843EA0143C0
:1030400013612268D36823F08003D36023689B68F0
:1030500013F0200F20D02268D36C23F00303D36435
:103060002168CB6CE269606902431343CB64236837
:10307000FF225A62012384F821300BE080F82030CF
:1030800003F00EFAB5E72368FF225A62042384F89E
:1030900021300125284638BD2046FFF76BFF002868
:1030A000D9D02368FF225A62042384F821300125F5
:1030B000F0E70125EEE7002302E001330A38C0B251
:1030C0000928FAD81B01DBB218437047F8B590F80D
:1030D0002030012B00F081800D460446012380F84A
:1030E0002030022380F82130002A48D103689B68F1
:1030F00013F0400F01D10023CB702878FFF7DBFFDE
:1031000006046878FFF7D7FF46EA0026A878FFF79D
:10311000D2FF3043EE7840EA06462368CA225A625C
:10312000236853225A622046FFF73DFF07460028D6
:1031300037D1236806F07F3626F0FE461E602268EF
:10314000936823F48023936021688B68EA68286978
:10315000024313438B602268D36823F08003D3605B
:1031600023689B6813F0200F27D02368FF225A6240
:10317000012384F82130002384F820301BE0036809
:103180009B6813F0400F01D10023CB702B78687837
:10319000000240EA0340AB781843EE7840EA064666
:1031A000BBE72368FF225A62042384F821300023FE
:1031B00084F8203001273846F8BD2046FFF7DAFEB4
:1031C0000028D2D02368FF225A62042384F82130D9
:1031D000002384F820300127EDE70227EBE770B5E4
:1031E00090F82030012B6ED0012380F8203002238C
:1031F00080F821303AB94B7813F0100F03D003F068
:10320000EF030A334B700E460446002A34D1C878C7
:10321000FFF751FF05047078FFF74DFF45EA0025E1
:10322000B078FFF748FF2843357840EA45352368F2
:10323000CA225A62236853225A622046FFF7B3FE1D
:10324000064620BB236825F07F4525F0C0055D605C
:103250002268D36823F08003D36023689B6813F04F
:10326000200F20D02368FF225A62012384F82130E6
:10327000002384F8203014E048788D78CB78000261
:1032800040EA034028430D7840EA4535CFE72368FC
:10329000FF225A62042384F82130002384F820306E
:1032A0000126304670BD2046FFF764FE0028D9D0C5
:1032B0002368FF225A62042384F82130002384F813
:1032C00020300126EDE70226EBE7000090F82030E1
:1032D000012B6FD030B4012380F82030022380F816
:1032E00021308B6813B10B685B008B60CB68B3B186
:1032F0000023CB600B6813F0010F02D04FF40032B3
:10330000CA6013F0080F03D0CA6842F48012CA6082
:1033100013F0200F03D0CB6843F40003CB600B699C
:10332000B3B100230B610B6813F0010F02D04FF40F
:1033300080220A6113F0080F03D00A6942F40012D8
:103340000A6113F0200F03D00B6943F080730B6107
:103350000A684B6813438C682343CC6823430C6989
:1033600023434C6923438C692343CC6923430C6A70
:103370002343496A0B430568296C42EA42020E4C1A
:10338000144321EA0401296401680A6C13430B64A5
:103390000A4B1A6842F400221A609A6842F400222A
:1033A0009A60012380F82130002380F820301846ED
:1033B00030BC70470220704784FFFF0100040140C9
:1033C000704770477047704710B504463D4B4FF447
:1033D00000225A6156E02046FFF7F2FF2268D368C8
:1033E000DBB263F40863D36031E0D368DBB263F42B
:1033F0000253D3602046FFF7E4FF31E0D368DBB22D
:1034000063F48143D3602046FFF7DCFF31E0D368EB
:10341000DBB243F07F4343F47F0343F4FE4343F0C6
:103420007F03D3602046FFF7CEFF2BE0196C264ABE
:103430000A40002A41D0DA6812F4004F3DD09A6861
:1034400012F4004F03D0DB6813F4006FC3D122687D
:10345000116C1E4B0B401BB1D36813F4005FC4D139
:103460002268116C1A4B0B401BB1D36813F4804FC8
:10347000C4D12268116C144B0B401BB1D36813F4F8
:10348000004FC4D123689A6812F4004F03D0DA6861
:1034900012F4006FD3D1196C0C4A0A401AB1DA68E1
:1034A00012F4005FCBD1196C094A0A40002ABDD042
:1034B000DA6812F4804FC2D1B8E7012384F82130D2
:1034C00010BD00BF000401400400400004000100E2
:1034D0000400080010B4036A046A24F001040462C2
:1034E000846924F0F00444EA021223F00A030B4337
:1034F000826103625DF8044B704710B4036A23F0E5
:10350000100303628469036A24F4704444EA0232BB
:1035100023F0A00343EA0113826103625DF8044BC8
:103520007047836823F0700341F0070119438160FD
:1035300070470268D36843F00103D36002681368E0
:1035400043F00103136000207047704770477047D5
:103550007047704710B5044603681A6912F0020FED
:1035600011D0DA6812F0020F0DD06FF002021A616A
:103570000123037703689B6913F0030F70D0FFF7F3
:10358000E6FF0023237723681A6912F0040F12D094
:10359000DA6812F0040F0ED06FF004021A610223F1
:1035A000237723689B6913F4407F5FD02046FFF7A1
:1035B000CEFF0023237723681A6912F0080F12D078
:1035C000DA6812F0080F0ED06FF008021A610423B7
:1035D00023772368DB6913F0030F4ED02046FFF7F3
:1035E000B6FF0023237723681A6912F0100F12D058
:1035F000DA6812F0100F0ED06FF010021A61082373
:1036000023772368DB6913F4407F3DD02046FFF722
:103610009EFF0023237723681A6912F0010F03D05D
:10362000DA6812F0010F36D123681A6912F0800FA0
:1036300003D0DA6812F0800F34D123681A6912F0CF
:10364000400F03D0DA6812F0400F32D123681A69B4
:1036500012F0200F03D0DA6812F0200F30D110BD25
:10366000FFF774FF2046FFF773FF8AE72046FFF756
:103670006DFF2046FFF76CFF9BE72046FFF766FFD4
:103680002046FFF765FFACE72046FFF75FFF2046C7
:10369000FFF75EFFBDE76FF001021A612046FFF7FA
:1036A00054FFC1E76FF080021A61204600F0AFF9C5
:1036B000C3E76FF040021A612046FFF74AFFC5E7F3
:1036C0006FF020021A61204600F0A0F9C7E7000061
:1036D0000368304A904212D0B0F1804F0FD0A2F56B
:1036E000943290420BD002F58062904207D002F5EE
:1036F0008062904203D002F59432904203D123F0CD
:1037000070034A681343234A90421ED0B0F1804FA1
:103710001BD0A2F59432904217D002F580629042FD
:1037200013D002F5806290420FD002F5943290429D
:103730000BD002F54062904207D002F580629042C1
:1037400003D002F58062904203D123F44073CA682B
:10375000134323F080034A69134303608B68C362F9
:103760000B6883620B4B98420FD003F500639842BD
:103770000BD003F54063984207D003F5806398426D
:1037800003D003F58063984201D10B6903630123E1
:1037900043617047002C0140A8B110B5044690F871
:1037A0003D305BB1022384F83D30211D2068FFF7D6
:1037B0008FFF012384F83D30002010BD80F83C309D
:1037C00002F080FFEEE70120704710B4846824F413
:1037D0007F4442EA03230B43234383605DF8044B99
:1037E0007047000090F83C30012B00F0828010B54B
:1037F0000446012380F83C30022380F83D30026803
:1038000090683D4B034093600B68402B5DD010D90E
:10381000702B40D01FD8502B4DD0602B34D1CA68AC
:1038200049682068FFF769FE60212068FFF779FE8C
:103830002AE0102B53D008D9202B55D0302B23D180
:1038400030212068FFF76DFE1EE0EBB900212068F3
:10385000FFF767FE18E0B3F5805F0ED0B3F5005FA9
:1038600012D1CB684A6889682068FFF7AEFF2268EA
:10387000936843F48043936006E02268936823F4DE
:10388000803323F007039360012384F83D30002048
:1038900084F83C0010BDCB684A6889682068FFF74F
:1038A00094FF2268936823F4803323F0770343F076
:1038B00077039360E8E7CA6849682068FFF70AFE63
:1038C00050212068FFF72DFEDEE7CA6849682068AE
:1038D000FFF700FE40212068FFF723FED4E7102108
:1038E0002068FFF71EFECFE720212068FFF719FEB2
:1038F000CAE70220704700BF8800FEFF10B50468C9
:10390000A26822F070024B68134323F4803323F043
:1039100007030A681343A3604B68502B1ED00AD9D3
:10392000602B21D0702B05D10B698A68C9680068AB
:10393000FFF74BFF10BD402BFCD103681C6A1A6ACD
:1039400022F001021A620268936923F0F003096908
:1039500043EA0113936103681C62EBE70A69896813
:103960000068FFF7B7FDE5E70A6989680068FFF7B7
:10397000C4FDDFE738B590F83C30012B18D0044681
:10398000012580F83C50022380F83D30FFF7B6FF58
:103990002268D36823F04003D3602268D36823F4FD
:1039A0008043D36084F83D50002084F83C0038BD4B
:1039B0000220FCE790F83C30012B22D030B40123E8
:1039C00080F83C300268536895680F4CA24203D0DF
:1039D00004F50064A24203D123F470034C6823432E
:1039E00023F070030C68234325F080048968214389
:1039F000536003689960002380F83C30184630BC5F
:103A000070470220704700BF002C0140704770478C
:103A10000268136823F4907313600268936823F0BC
:103A200001039360202380F87230002303667047FF
:103A3000704708B501680A6822F040020A60202237
:103A400080F8712000224266FFF7F2FF08BD704740
:103A500038B504460268D3691168906813F00F0501
:103A60000CD113F0200F09D011F0200F06D0236ED7
:103A7000002B00F098802046984794E0002D6FD0EE
:103A800010F0010502D111F4907F69D013F0010FFD
:103A900007D011F4807F04D001201062626F0243CE
:103AA000626713F0020F07D035B12268022010625E
:103AB000626F42F00402626713F0040F07D035B161
:103AC000226804201062626F42F00202626713F003
:103AD000080F09D011F0200F00D12DB12268082065
:103AE0001062626F02436267626F002A5BD013F05C
:103AF000200F06D011F0200F03D0236E0BB120460B
:103B00009847636F13F0080F04D123689B6813F084
:103B1000400F1FD02046FFF77BFF23689A6812F002
:103B2000400F13D09A6822F040029A60E36E4BB1C6
:103B30001F4A9A63E06EFDF783FEA0B3E06E836BCD
:103B4000984730E02046FFF782FF2CE02046FFF741
:103B50007EFF28E02046FFF77AFF0023636722E01C
:103B600013F4801F02D010F4800F0AD113F0800FDD
:103B700013D011F0800F10D0636EA3B12046984788
:103B800011E04FF480131362202384F8713084F81D
:103B90007230204600F019FC05E013F0400F02D00F
:103BA00011F0400F00D138BD2046FFF742FFFAE781
:103BB000B53B000808B5806A0023A0F85A30A0F889
:103BC0005230FFF744FF08BD2DE9F0480446016874
:103BD00083680269134342691343C2691343086847
:103BE000A24A024013430B602268536823F44053F7
:103BF000E1680B435360A16922689D4B9A4201D052
:103C0000236A1943936823F430630B43936023685A
:103C1000984A934227D0984A934238D0974A934281
:103C20004ED0974A934261D0964A934274D0904ABC
:103C3000934200F08A8010258D4A934200F0AA80BA
:103C4000E369B3F5004F00F03581082D00F2BF8124
:103C5000DFE815F07F0195019F01BD01AA01BD01BB
:103C6000BD01BD01B40102F55842D2F8882002F02E
:103C70000302032A09D8DFE802F0020481060125C5
:103C8000DAE70425D8E70825D6E71025D4E702F5BA
:103C9000E632D2F8882002F00C020C2A0ED8DFE8B7
:103CA00002F0070D0D0D090D0D0D6F0D0D0D0B0023
:103CB0000025C1E70425BFE70825BDE71025BBE7C0
:103CC00002F5E432D2F8882002F03002102A09D03E
:103CD00005D9202A56D0302A06D10825ACE71AB9D2
:103CE0000025A9E70425A7E71025A5E702F5E2329C
:103CF000D2F8882002F0C002402A09D005D9802AD3
:103D000042D0C02A06D1082596E71AB9002593E7C4
:103D1000042591E710258FE702F5E032D2F88820DC
:103D200002F44072B2F5807F0BD007D9B2F5007F64
:103D30002CD0B2F5407F06D108257DE71AB90025C1
:103D40007AE7042578E7102576E702F5C832D2F83D
:103D5000882002F44062B2F5806F0BD007D9B2F52B
:103D6000006F15D0B2F5406F06D1082564E71AB987
:103D7000002561E704255FE710255DE702255BE785
:103D8000022559E7022557E7022555E7022553E7A3
:103D9000022551E7082D00F21D81DFE815F00C0027
:103DA0001B0114001B0111001B011B011B01090059
:103DB0004FF4004008E0FEF719FD28B90020D9E0D3
:103DC000FEF7FEF8F9E73048626802EB42038342EF
:103DD00000F20281B0EB023F00F20081082D66D8AC
:103DE000DFE805F005652065306565655800FEF77C
:103DF000FDFC0025070E0602626850082B4616EBF4
:103E0000000B47F1000C58466146FCF7E1F9034608
:103E10002846A3F540711D4A914200F2E1802268D4
:103E2000D360A7E0560800252B46DFF864B04FF0BA
:103E3000000C1BEB06004CF10001FCF7C9F903462E
:103E40002846E6E7FEF7BCF80025070E0602626882
:103E500050082B4616EB000B47F1000C5846614604
:103E6000FCF7B6F903462846D3E700BFF369FFEF36
:103E700000800040003801400044004000480040FD
:103E8000004C0040005000400024F400FFFC0F00F4
:103E9000000024F45008002700252B4610F50000F0
:103EA00047F10001FCF794F903462846B1E70120E9
:103EB0000023AEE7082D49D8DFE805F0051E2948A4
:103EC000344848483F00FEF791FC6268530803EB12
:103ED0004003B3FBF2F39BB20020A3F110014FF6B5
:103EE000EF7291427ED89AB222F00F02C3F34203DE
:103EF00013432268D3603DE0FEF788FC62685308F4
:103F000003EB4003B3FBF2F39BB20020E5E76268EA
:103F1000530803F1F47303F59043B3FBF2F39BB240
:103F20000020DAE7FEF74CF86268530803EB400321
:103F3000B3FBF2F39BB20020CFE76268530803F5AE
:103F40008033B3FBF2F39BB20020C6E701200023CD
:103F5000C3E7FEF74BFC636800EB5302B2FBF3F2DE
:103F600092B20020A2F110014FF6EF7399423BD8B4
:103F70002368DA60002222666266BDE8F088FEF7F8
:103F800045FC636800EB5302B2FBF3F292B20020EF
:103F9000E8E763685A0802F5740202F51052B2FBB2
:103FA000F3F292B20020DDE7FEF70AF8636800EB57
:103FB0005302B2FBF3F292B20020D3E763685A08CF
:103FC00002F50042B2FBF3F292B20020CAE70120F0
:103FD0000022C7E70120CDE70120CBE70120C9E798
:103FE0000120C7E70120C5E70120C3E7436A13F0BA
:103FF000010F06D00268536823F40033816A0B4333
:104000005360436A13F0020F06D00268536823F42A
:104010008033C16A0B435360436A13F0040F06D028
:104020000268536823F48023016B0B435360436A97
:1040300013F0080F06D00268536823F40043416B65
:104040000B435360436A13F0100F06D00268936865
:1040500023F48053816B0B439360436A13F0200F6A
:1040600006D00268936823F40053C16B0B4393603E
:10407000436A13F0400F0AD00268536823F4801398
:10408000016C0B435360036CB3F5801F0BD0436A84
:1040900013F0800F06D00268536823F40023816C6C
:1040A0000B43536070470268536823F4C003416CAC
:1040B0000B435360EBE72DE9F04105460F461646EA
:1040C0009846069C2B68DB6937EA03030CBF012383
:1040D0000023B3421DD1B4F1FF3FF3D02CB1FCF764
:1040E0009BFCA0EB0800A042ECD92A68136823F4DB
:1040F000D07313602A68936823F001039360202330
:1041000085F8713085F87230002385F8703003200F
:1041100000E00020BDE8F0812DE9F04182B01E46AC
:1041200090F87130DBB2202B4ED104460D469046FC
:1041300000294ED0002A4ED090F87030012B4CD080
:10414000012380F8703000234367212380F8713009
:10415000FCF762FC0746A4F85080A4F8528009E0FE
:1041600023682A781A850135B4F85230013B9BB296
:10417000A4F85230B4F852309BB2ABB100963B4633
:10418000002280212046FFF796FF40BBA368B3F5CD
:10419000805FE5D12369002BE2D1226835F8023B2C
:1041A000C3F308031385DFE700963B460022402156
:1041B0002046FFF780FF034698B9202284F871203B
:1041C000002284F8702000E00223184602B0BDE807
:1041D000F0810123F9E70123F7E70223F5E7032341
:1041E000F3E70323F1E72DE9F04182B01E4690F892
:1041F0007230DBB2202B71D104460D469046002967
:1042000070D0002A70D090F87030012B6ED001234E
:1042100080F8703000234367222380F87230FCF767
:10422000FBFB0746A4F85880A4F85A80A368B3F5AE
:10423000805F06D0A3B9236973B9FF23A4F85C306B
:1042400011E0236923B940F2FF13A4F85C300AE0BF
:10425000FF23A4F85C3006E07F23A4F85C3002E082
:10426000B3F1805F02D0B4F85C8016E023691BB91B
:104270007F23A4F85C30F6E73F23A4F85C30F2E734
:1042800023689A8C5FFA88F313402B700135B4F8D9
:104290005A30013B9BB2A4F85A30B4F85A309BB262
:1042A000ABB100963B46002220212046FFF703FFDA
:1042B000F0B9A368B3F5805FE2D12369002BDFD1A9
:1042C00023689B8C08EA030325F8023BDFE72023E1
:1042D00084F87230002084F8700000E0022002B000
:1042E000BDE8F0810120FAE70120F8E70220F6E7B7
:1042F0000320F4E730B583B0044600234367FCF79E
:104300008BFB054623681B6813F0080F0ED123684A
:104310001B6813F0040F17D1202384F8713084F840
:104320007230002084F8700003B030BD6FF07E431F
:104330000093034600224FF400112046FFF7BBFE16
:104340000028E4D00320EFE76FF07E4300932B4674
:1043500000224FF480012046FFF7ADFE0028DBD09D
:104360000320E1E778B310B5044690F871300BB341
:10437000242384F871302268136823F0010313604A
:104380002046FFF721FC012813D0636ABBB92268DD
:10439000536823F4904353602268936823F02A0300
:1043A00093602268136843F0010313602046FFF70F
:1043B000A1FF10BD80F8703002F038FAD8E720462F
:1043C000FFF714FEE3E70120704770470138032828
:1043D00003D8DFE800F00A040608002106E0022105
:1043E00004E0042102E0082100E00121012004286A
:1043F0000AD8064A4FF4BA7303FB00235B780B42DA
:1044000003D10130C0B2F2E7012070474C03002015
:1044100002290ED0032913D0012901D000207047B2
:104420002D4B93F87431072B19D0082B1DD0062B78
:104430000FD0294B93F8E832062B1CD0072B20D045
:10444000254B93F85C34062B2CD0072B30D0002062
:104450007047431EDBB2012BEBD8012070470128C7
:104460002CD00228E5D103207047012828D002284B
:10447000DFD102207047831EDBB2012BE0D8012080
:104480007047154B93F87431082B05D002281BD0C8
:104490000328D5D103207047032813D00428CFD197
:1044A000032070470338C0B201280FD9002070479D
:1044B00003280DD004280DD000207047012070473C
:1044C000012070470120704701207047012070478C
:1044D00001207047032070474C03002010B50124D1
:1044E00001E00134E4B2042C0BD84FF4BA7303FB9F
:1044F00004F3044AD35C002BF3D0204601F008F902
:10450000EFE710BD4C03002010B5012401E0013499
:10451000E4B2042C0BD84FF4BA7303FB04F3044A3F
:10452000D35C002BF3D0204600F070FBEFE710BD0A
:104530004C03002038B50546012401E00134E4B203
:10454000042C10D84FF4BA7303FB04F3064AD35C6F
:10455000002BF3D02946204601F018F92946002007
:1045600001F014F9EAE738BD4C03002008B500F06B
:104570000F02144B1A70C0F30310587001F00F02B1
:1045800083F87421C1F3031283F87521C1F3032268
:1045900083F8E822C1F3033283F8E922C1F303422E
:1045A00083F85C24C1F3035283F85D24C1F30362F2
:1045B00083F8D025090F83F8D115184600F020FBA9
:1045C000002008BD4C0300202DE9F04180460F4635
:1045D00016461D46FFF7FAFE044601464046FFF721
:1045E00017FF012805D00238C0B201280CD9BDE858
:1045F000F0810B4A4FF4BA7303FB04246760A66092
:104600006561069BA361F2E7054B4FF4BA7202FBAA
:104610000434E7602661E561069B2362E7E700BF9B
:104620004C03002008B501F007F808BD08B500F0FC
:10463000E5FC08BD042801D90020704708B501F049
:1046400009F8002008BD042801D90020704708B5EA
:1046500000F0E4FC002008BD044A4FF4BA7303FBE9
:10466000002080F824100020704700BF4C03002079
:1046700008B500F0BBFD08BD08B500F0EDFD08BDB4
:1046800008B500F01FFE08BD08B500F051FE08BDDA
:10469000F8B504460E46FFF799FE0546014620464A
:1046A000FFF7B6FE044632460146284600F0CAFA35
:1046B000012C11D0022C1BD0002000218C00850081
:1046C00044EA90762A1846EB0103941843EB03055D
:1046D000200F40EA0510F8BDC7170B4B4FF4BA7115
:1046E00001FB05314B68A0FB030103FB0711E5E764
:1046F000C71705494FF4BA7303FB0511CB68A0FB3C
:10470000030103FB0711D9E74C0300202DE9F04119
:1047100004460F46FFF75AFE054601462046FFF7BE
:1047200077FE06463A460146284600F065FB04EB54
:1047300084033B442F4A52F82330B3F1C04F0BDDC2
:10474000B0F1204F08D204EB84033B44183302EB52
:1047500083035A6801325A6004EB84033B44254AC0
:1047600052F82330B3F1204F0BD2B0F1C04F08DD27
:1047700004EB84033B44183302EB83035A68013A89
:104780005A601C4B04EB84043C4443F82400183466
:1047900003EB84040027D4F804803A1848EBE07354
:1047A00010461946012E0ED0022E17D08C00820022
:1047B00044EA9073141843EB0105221945EB0503F5
:1047C0001846BDE8F0810C484FF4BA7101FB0505AD
:1047D000AC68A2FB040104FB0311E7E706494FF4B0
:1047E000BA7000FB05152C69A2FB040104FB031140
:1047F000DCE700BF900A00204C03002070B506469D
:104800000D46FFF7E3FD044601463046FFF700FE84
:104810002A460146204600F03FFC002070BD70B5DE
:1048200006460D46FFF7D2FD044601463046FFF727
:10483000EFFD2A460146204600F0CCFD70BD70B564
:1048400006460D46FFF7C2FD044601463046FFF717
:10485000DFFD2A460146204600F0F2FD70BD000053
:104860000C4B1A684FF4BA7303FB00200A4B036326
:104870004363002380F82A3080F82C3080F82930F8
:10488000064A8263C26380F82B3080F82D3080F8AE
:1048900028307047D80D0020E00D0020B00D00201A
:1048A000174B1B68174A93420BD0174A934212D0FA
:1048B000164A934215D04FF4857303FB00F0000AAB
:1048C00004E04FF4856303FB00F0000A022800D9DE
:1048D0000338002210E040F21E3303FB00F0000A10
:1048E000F4E74FF4057303FB00F0000AEEE7084914
:1048F0000B6801330B6001328242F8D3704700BF6E
:104900000000002000D8B80500A24A04006CDC02B8
:10491000DC0D0020430803F05503400020F0550053
:1049200040B20343DBB2980800F033009B0023F051
:1049300033035BB20343DBB2180940EA0310C0B291
:10494000704700000022072A18D810B405E0400084
:10495000C0B20132D2B2072A0DD809490B7883EAD6
:1049600000045B00DBB20B7014F0800FEFD083F01B
:1049700007030B70EBE75DF8044B7047704700BF0F
:104980008400002038B505460024064B1C7004E066
:10499000285DFFF7D7FF0134E4B2032CF8D9014BAF
:1049A000187838BD840000204FF4BA7303FB00F080
:1049B0001B4B1B680344D96B9A6B914212D010B405
:1049C000184C62780132D2B26270042A1AD993F874
:1049D0002B20013283F82B20124B00225A705DF8F5
:1049E000044B7047002283F82B200F4A9A6393F8F8
:1049F000281002F8011BDA63012283F82D20094BED
:104A00005A70704793F828300B70054B1B68184498
:104A1000C36B0133C363012380F82D30DFE700BF90
:104A2000D80D002084000020B00D00200D4B1A6826
:104A30004FF4BA7303FB0020426B036B9A4208D019
:104A400013F8012B80F829200363012380F82A3012
:104A50007047002380F82A3080F82C30024B036323
:104A600043637047D80D0020E00D002008B5064BC9
:104A70001A684FF4BA7303FB00200A46B0F85010CE
:104A8000C06CFDF7F8F908BDD80D002038B5054613
:104A90000121FFF7EBFF00240FE000212846FFF77C
:104AA000E5FF6420FFF7FCFE01212846FFF7DEFF4B
:104AB0006420FFF7F5FE0134E4B2022CEDD938BDD5
:104AC00008B5064B1A684FF4BA7303FB00200A4678
:104AD000B0F84810406CFDF7CEF908BDD80D0020A5
:104AE00010B504460121FFF7EBFF00212046FFF738
:104AF000E7FF01212046FFF7B9FF00212046FFF71D
:104B0000B5FF0520FFF7CCFE01212046FFF7AEFFE1
:104B100001212046FFF7D4FF00212046FFF7D0FFF8
:104B200010BD000008B5064B1A684FF4BA7303FBBA
:104B300000200A46B0F85810406DFDF79CF908BDFA
:104B4000D80D002030B583B002AD05F8011DC0EBD3
:104B50000010C400084B1C440023012229462046B3
:104B6000FFF7DAFA0A23012229462046FFF73BFB2A
:104B70009DF8070003B030BD580B0020F8B54FF486
:104B8000BA7404FB00F41D4B1B68234493F82C20DB
:104B900002B1F8BD05461B6B1978FFF7D3FF064637
:104BA000164B1B6823441A6B01321A63012283F8E7
:104BB0002C2006E0114B1B68234493F82C30002B6B
:104BC000E7D00E4F3B68234483F828602846FFF760
:104BD000EBFE3B6823445B6B002BEBD02846FFF7D2
:104BE00025FF3B68234493F82A20012AE2D193F859
:104BF00029102846FFF7A6FF0646DBE7D80D002060
:104C0000014B186000207047D80D002000B9704794
:104C100010B504460021FFF753FF4FF47A70FFF7F9
:104C20003FFE00212046FFF77DFF4FF47A70FFF72B
:104C300037FE01212046FFF775FF4FF47A70FFF72A
:104C40002FFE10BD0346002800F0D280013A062A4C
:104C500000F2CC80DFE802F004223E5A7692AE00E9
:104C6000012905D002290ED0002040F31B00704717
:104C7000604A11684FF4BA7202FB0313D3F81401AF
:104C800020F06040F1E75B4A11684FF4BA7202FB12
:104C90000313D3F8440120F06040E6E7012903D074
:104CA00002290CD00020E0E7524A11684FF4BA7292
:104CB00002FB0313D3F8180120F06040D5E74D4AFA
:104CC00011684FF4BA7202FB0313D3F8480120F0C5
:104CD0006040CAE7012903D002290CD00020C4E7B4
:104CE000444A11684FF4BA7202FB0313D3F81C0153
:104CF00020F06040B9E73F4A11684FF4BA7202FBF6
:104D00000313D3F84C0120F06040AEE7012903D033
:104D100002290CD00020A8E7364A11684FF4BA7275
:104D200002FB0313D3F8200120F060409DE7314AD5
:104D300011684FF4BA7202FB0313D3F8500120F04C
:104D4000604092E7012903D002290CD000208CE7B3
:104D5000284A11684FF4BA7202FB0313D3F82401F6
:104D600020F0604081E7234A11684FF4BA7202FBD9
:104D70000313D3F8540120F0604076E7012903D0F3
:104D800002290CD0002070E71A4A11684FF4BA7259
:104D900002FB0313D3F8280120F0604065E7154AB1
:104DA00011684FF4BA7202FB0313D3F8580120F0D4
:104DB00060405AE7012903D002290CD0002054E7B3
:104DC0000C4A11684FF4BA7202FB0313D3F82C019A
:104DD00020F0604049E7074A12684FF4BA7101FBBE
:104DE0000323D3F85C0120F060403EE700203CE75D
:104DF00000207047D80D00200346002868D0013AF3
:104E0000032A68D8DFE802F0021A324C012903D0E5
:104E100002290AD000205CE0304A11684FF4BA72CF
:104E200002FB0313D3F8040153E02C4A11684FF43A
:104E3000BA7202FB0313D3F834014AE0012903D00C
:104E400002290AD0002044E0244A11684FF4BA72C3
:104E500002FB0313D3F808013BE0204A11684FF42A
:104E6000BA7202FB0313D3F8380132E0012903D0F0
:104E700002290BD000202CE0184A11684FF4BA72B6
:104E800002FB0313D3F80C01404222E0134A1168DD
:104E90004FF4BA7202FB0313D3F83C01404218E00E
:104EA000012903D002290AD0002012E00B4A116820
:104EB0004FF4BA7202FB0313D3F8100109E0074A5A
:104EC00012684FF4BA7101FB0323D3F8400100E0EC
:104ED0000020C11770470020FBE700BFD80D00205D
:104EE0002DE9F04F87B007460191144698469DF88A
:104EF00040B028252A4600213D4801F08AFD2A4677
:104F000000213C4801F085FD3846FFF7A9FC24B19B
:104F10004FEA440A5FFA8AFA01E04FF0010A0026DC
:104F2000B14634E006AB1D1915F8080CFFF7F2FC8A
:104F300005F80C0C0134E4B2032CF3D903A8FFF7F5
:104F400021FDFFF7E7FC01468DF814004FF4BA7419
:104F500004FB07F4284A136823445B6B0498186029
:104F6000197109F10509136823445A6B05325A6314
:104F700000213846FFF7A4FD3846FFF7FFFDBBF1DF
:104F8000010F1AD03846FFF76BFC0136F6B2B24576
:104F90001BD9FF238DF81030019B1B7833448DF80B
:104FA000113098F800308DF8123098F801308DF8F3
:104FB000133008F102080024BEE70F4B1B6823449E
:104FC00093F82B30002BF8D0DCE73846FFF748FC8D
:104FD000282422460021064801F01BFD224600211C
:104FE000044801F016FD484607B0BDE8F08F00BF49
:104FF000E00D0020B00D0020D80D002008B9E8B267
:10500000704730B585B00C4604A941F8044D012421
:105010000094FFF765FFC0B205B030BD00B585B0A4
:105020000023039328B102291CD0032904D00129AD
:105030002CD005B05DF804FB164B1A684FF4BA7318
:1050400003FB00235A6E22F4C00242F4000243F82C
:10505000642F04A9042241F8042D01220092FFF7D5
:105060003FFFE6E70B4B1A684FF4BA7303FB0023CC
:105070005A6E42F4C00243F8642F04A9042241F896
:10508000042D01220092FFF72BFFD2E7FFF728FD46
:10509000CFE700BFD80D002000B585B000230393F3
:1050A000E8B10346032A09D8DFE802F002365A7E47
:1050B000012917D00239C9B2012920D9184604A9FB
:1050C000182341F8043D484B1A684FF4BA7303FBA8
:1050D0000023012200928C330222FFF701FF05B06A
:1050E0005DF804FB404A11684FF4BA7202FB0312E8
:1050F000D2F88C1021F04061C2F88C10DEE73A4AF9
:1051000011684FF4BA7202FB0312D2F8901021F02A
:105110004061C2F89010D1E7012912D00239C9B21A
:105120000129CBD8304A12684FF4BA7101FB032130
:10513000D1F8902042F0806222F00062C1F8902005
:10514000BCE7294A12684FF4BA7101FB0321D1F878
:105150008C2042F0806222F00062C1F88C20ADE722
:10516000012912D00239C9B20129A7D81E4A1268F2
:105170004FF4BA7101FB0321D1F8902022F0806234
:1051800042F00062C1F8902098E7174A12684FF485
:10519000BA7101FB0321D1F88C2022F0806242F029
:1051A0000062C1F88C2089E7012910D00239C9B208
:1051B000012983D80C4A11684FF4BA7202FB03121A
:1051C000D2F8901041F04061C2F8901076E7064A9C
:1051D00011684FF4BA7202FB0312D2F88C1041F03E
:1051E0004061C2F88C1069E7D80D002088B300B583
:1051F00083B00346012912D002291DD01846154B51
:105200001A684FF4BA7303FB0023012200925C3347
:1052100002220021FFF764FE03B05DF804FB0D4994
:1052200009684FF4BA7000FB0310C16D21F04051C2
:1052300041EA0272C265E1E7064909684FF4BA70B3
:1052400000FB0310016E21F0405141EA0272026638
:10525000D4E77047D80D002088B300B583B003466B
:10526000012912D002291DD01846154B1A684FF497
:10527000BA7303FB0023012200925C330222002157
:10528000FFF72EFE03B05DF804FB0D4909684FF4EB
:10529000BA7000FB0310C16D21F0404141EA8272F7
:1052A000C265E1E7064909684FF4BA7000FB0310D4
:1052B000016E21F0404141EA82720266D4E77047F4
:1052C000D80D002088B300B583B00346012912D061
:1052D00002291DD01846154B1A684FF4BA7303FB08
:1052E0000023012200925C3302220021FFF7F8FD27
:1052F00003B05DF804FB0D4909684FF4BA7000FB78
:105300000310C16D21F0706141EA0262C265E1E7FC
:10531000064909684FF4BA7000FB0310016E21F0D2
:10532000706141EA02620266D4E77047D80D00203E
:1053300000B585B000230393A0B10346012914D022
:1053400002292BD0184604A9042341F8043D204B20
:105350001A684FF4BA7303FB0023012200926433EE
:10536000FFF7BEFD05B05DF804FB52B9184A11689D
:105370004FF4BA7202FB0012516E41F08071516617
:10538000E0E7012ADED1124A11684FF4BA7202FB3B
:105390000012516E21F080715166D3E752B90C4A68
:1053A00011684FF4BA7202FB0012516E41F00071A5
:1053B0005166C7E7012AC5D1054A11684FF4BA7290
:1053C00002FB0012516E21F000715166BAE700BF76
:1053D000D80D002088B300B583B00346012912D050
:1053E00002291DD01846154B1A684FF4BA7303FBF7
:1053F0000023012200925C3302220021FFF770FD9E
:1054000003B05DF804FB0D4909684FF4BA7000FB66
:105410000310C16D21F4801141EA0252C265E1E737
:10542000064909684FF4BA7000FB0310016E21F4BD
:10543000801141EA02520266D4E77047D80D00207D
:1054400088B300B583B00346012912D002291DD0CC
:105450001846154B1A684FF4BA7303FB0023012258
:1054600000925C3302220021FFF73AFD03B05DF8A1
:1054700004FB0D4909684FF4BA7000FB0310C16DBD
:1054800021F4002141EAC242C265E1E70649096808
:105490004FF4BA7000FB0310016E21F4002141EAC1
:1054A000C2420266D4E77047D80D00202DE9F04FC4
:1054B00085B006460D46904699462824224600218E
:1054C0005A4801F0A6FA22460021594801F0A1FAF3
:1054D0003046FFF7C5F92B788DF80830FF238DF89B
:1054E00009308DF80A308DF80B30002409E004AB48
:1054F0001D1915F8080CFFF70DFA05F80C0C01340E
:10550000E4B2032CF3D901A8FFF73CFAFFF702FA43
:1055100001468DF80C004FF4BA7404FB06F4454ABA
:10552000136823445B6B0298186019711368234455
:105530005A6B05325A6300213046FFF7C1FA3046F4
:10554000FFF71CFB002300933A4B1B68234493F89E
:105550002B305BB9009B01330093009BB3F5FA7FBE
:10556000F2D93046FFF77CF900275AE03046FFF7C2
:1055700077F9002505273BE004AB03EB0A0B1BF88A
:10558000080CFFF7C7F90BF80C0C0AF1010A5FFAD7
:105590008AFABAF1030FEFD901A8FFF7F3F9FFF781
:1055A000B9F901468DF80C00224A136823445B6B5D
:1055B0000298186019710537136823445A6B053235
:1055C0005A6300213046FFF77BFA3046FFF7D6FAE0
:1055D000184B1B68234493F82B20002AF8D09B6BB0
:1055E0001B6849F825303046FFF73AF90135EDB22E
:1055F00045450BD2FF238DF808308DF809308DF822
:105600000A308DF80B304FF0000AC2E728242246FA
:105610000021064801F0FDF922460021044801F06E
:10562000F8F9384605B0BDE8F08F00BFE00D002066
:10563000B00D0020D80D002008B90020704710B52B
:1056400082B00C4602A941F8044DFFF72FFF00205D
:1056500002B010BD70B582B00023019390B1044632
:105660004FF4BA7505FB00F5124B1A685319525DD9
:10567000062A09D002A92A2241F8042DB03331228A
:10568000FFF714FF02B070BD02AE2A2246F8042DC7
:10569000B03321223146FFF709FF84230193054BE4
:1056A0001B682B4403F5B273042231462046FFF7F2
:1056B000FDFEE7E7D80D0020F8B50546124B1A6845
:1056C0004FF4BA7303FB00231F6C104E0401221A1F
:1056D000D300F018F750416000238360C36003617A
:1056E0000C2242618361C361082343624FF400438B
:1056F0004363FEF737FE641BE300F258136843F080
:1057000001031360F8BD00BFD80D0020580B002026
:1057100000B9704738B504464FF41651FFF7CCFF77
:1057200000212046FFF7CCF94FF47A70FFF7B8F864
:105730002046FFF7ABF94FF47A70FFF7B1F801217B
:105740002046FFF7BDF96420FFF7AAF800212046A4
:10575000FFF7B6F944F62060FFF7A2F84FF4BA75E8
:1057600005FB04F5084B1B682B445C330122002128
:105770002046FFF79BFE30B9034B196800224A55BB
:105780001B681D446A7038BDD80D002000285BD00E
:105790002DE9F04184B00546042857D8B1F5614F92
:1057A00048D00AD8B1F5165F4BD0B1F5964F3ED030
:1057B000B1F5166F0CD0002036E0B1F5613F3CD05A
:1057C000B1F5E12F3BD0B1F5E13FF4D18B2201E0FF
:1057D00041F60B220C464FF4BA7707FB05F7DFF8CA
:1057E0007480D8F800303B44C3F8A82004AE2623C8
:1057F00046F8043D164B012231462846FFF756FE77
:10580000D8F800303B4402220092A83300223146EF
:105810002846FFF765FB4FF47A70FFF741F8214601
:105820002846FFF749FF012004B0BDE8F08140F2AF
:105830004132CFE74FF48B72CCE74522CAE72322EF
:10584000C8E740F28362C5E7012070470020EBE71C
:1058500088000020D80D0020394BD3F8903019680B
:10586000384A914201D00020704730B40022DA80DB
:10587000334BD3F890309A68052A1BD005229A60E2
:105880002F4BD3F890301622DA602D4CD4F89010BC
:10589000CA68C2F30013C2F340100344C2F340309D
:1058A000C2F3803528440344C2F38052134463702A
:1058B00000232FE0DA68D1B2162906D0972904D048
:1058C000382902D01622DA60DFE702F47F41B1F511
:1058D000185F09D0B1F5274F06D0B1F5B04F03D00E
:1058E00022F47F42DA60D0E702F47F01B1F58C0F39
:1058F00006D0B1F5470F03D022F47F02DA60C4E787
:1059000002F07F41B1F1064FBFD022F07F42DA6052
:10591000BBE70133032B0FDC03F1580251F82220BF
:10592000013A12F1030FF4D903F15802064850F876
:10593000220041F82200ECE7012030BC704700BF94
:10594000080E0020AA3333AA9472000808B5364B1B
:10595000D3F89030DA6832B1344A92F8D025063A5A
:10596000D2B2022A2BD9304BD3F89030DA6832B158
:105970002E4A92F85C24063AD2B2022A2DD92A4B3A
:10598000D3F89030DA6832B1284A92F8E822063A21
:10599000D2B2022A2ED9244BD3F89030DA686AB1F9
:1059A000224A92F87421063AD2B2022A2FD905224D
:1059B0009A601D4BD3F890301622DA6008BD03F5CB
:1059C0008673132200210420FEF730FE184B1322A9
:1059D00000210420FEF726FEC5E7B833132200217C
:1059E0000320FEF723FE134B132200210320FEF7B2
:1059F00019FEC4E76433132200210220FEF716FECD
:105A00000D4B132200210220FEF70CFEC3E71033DA
:105A1000132200210120FEF709FE084B132200216A
:105A20000120FEF7FFFDC9E7080E00204C0300200F
:105A30007809002004080020900600201C050020A2
:105A400010B50320FAF7B2FF084BC3F89000FFF738
:105A500003FF00B110BD054C4FF4C8720449D4F8DF
:105A6000900000F0CBFF03236370F3E7080E0020E3
:105A70009472000870B4012401E00134E4B2042CF3
:105A80001BD84FF4BA7303FB04F30D4AD35C002B0D
:105A9000F3D0631E4FF4BA7505FB0425C3EBC303B3
:105AA0009A00084E1644403506F5C8760FCE0FC54D
:105AB00096E8070085E80700DFE770BC704700BF85
:105AC0004C0300209472000810B504464FF4C872CD
:105AD0000849094BD3F8900000F090FF012C02D048
